{
  "abi": [
    {
      "inputs": [],
      "stateMutability": "nonpayable",
      "type": "constructor"
    },
    {
      "anonymous": false,
      "inputs": [
        {
          "indexed": true,
          "internalType": "address",
          "name": "owner",
          "type": "address"
        },
        {
          "indexed": true,
          "internalType": "address",
          "name": "spender",
          "type": "address"
        },
        {
          "indexed": false,
          "internalType": "uint256",
          "name": "amount",
          "type": "uint256"
        }
      ],
      "name": "Approval",
      "type": "event"
    },
    {
      "anonymous": false,
      "inputs": [
        {
          "indexed": true,
          "internalType": "address",
          "name": "from",
          "type": "address"
        },
        {
          "indexed": true,
          "internalType": "address",
          "name": "to",
          "type": "address"
        },
        {
          "indexed": false,
          "internalType": "uint256",
          "name": "value",
          "type": "uint256"
        },
        {
          "indexed": false,
          "internalType": "bytes",
          "name": "data",
          "type": "bytes"
        }
      ],
      "name": "Transfer",
      "type": "event"
    },
    {
      "anonymous": false,
      "inputs": [
        {
          "indexed": true,
          "internalType": "address",
          "name": "from",
          "type": "address"
        },
        {
          "indexed": true,
          "internalType": "address",
          "name": "to",
          "type": "address"
        },
        {
          "indexed": false,
          "internalType": "uint256",
          "name": "amount",
          "type": "uint256"
        }
      ],
      "name": "Transfer",
      "type": "event"
    },
    {
      "inputs": [],
      "name": "DOMAIN_SEPARATOR",
      "outputs": [
        {
          "internalType": "bytes32",
          "name": "",
          "type": "bytes32"
        }
      ],
      "stateMutability": "view",
      "type": "function"
    },
    {
      "inputs": [],
      "name": "PERMIT_TYPEHASH",
      "outputs": [
        {
          "internalType": "bytes32",
          "name": "",
          "type": "bytes32"
        }
      ],
      "stateMutability": "view",
      "type": "function"
    },
    {
      "inputs": [
        {
          "internalType": "address",
          "name": "",
          "type": "address"
        },
        {
          "internalType": "address",
          "name": "",
          "type": "address"
        }
      ],
      "name": "allowance",
      "outputs": [
        {
          "internalType": "uint256",
          "name": "",
          "type": "uint256"
        }
      ],
      "stateMutability": "view",
      "type": "function"
    },
    {
      "inputs": [
        {
          "internalType": "address",
          "name": "spender",
          "type": "address"
        },
        {
          "internalType": "uint256",
          "name": "amount",
          "type": "uint256"
        }
      ],
      "name": "approve",
      "outputs": [
        {
          "internalType": "bool",
          "name": "",
          "type": "bool"
        }
      ],
      "stateMutability": "nonpayable",
      "type": "function"
    },
    {
      "inputs": [
        {
          "internalType": "address",
          "name": "",
          "type": "address"
        }
      ],
      "name": "balanceOf",
      "outputs": [
        {
          "internalType": "uint256",
          "name": "",
          "type": "uint256"
        }
      ],
      "stateMutability": "view",
      "type": "function"
    },
    {
      "inputs": [],
      "name": "decimals",
      "outputs": [
        {
          "internalType": "uint8",
          "name": "",
          "type": "uint8"
        }
      ],
      "stateMutability": "view",
      "type": "function"
    },
    {
      "inputs": [],
      "name": "name",
      "outputs": [
        {
          "internalType": "string",
          "name": "",
          "type": "string"
        }
      ],
      "stateMutability": "view",
      "type": "function"
    },
    {
      "inputs": [
        {
          "internalType": "address",
          "name": "",
          "type": "address"
        }
      ],
      "name": "nonces",
      "outputs": [
        {
          "internalType": "uint256",
          "name": "",
          "type": "uint256"
        }
      ],
      "stateMutability": "view",
      "type": "function"
    },
    {
      "inputs": [
        {
          "internalType": "address",
          "name": "owner",
          "type": "address"
        },
        {
          "internalType": "address",
          "name": "spender",
          "type": "address"
        },
        {
          "internalType": "uint256",
          "name": "value",
          "type": "uint256"
        },
        {
          "internalType": "uint256",
          "name": "deadline",
          "type": "uint256"
        },
        {
          "internalType": "uint8",
          "name": "v",
          "type": "uint8"
        },
        {
          "internalType": "bytes32",
          "name": "r",
          "type": "bytes32"
        },
        {
          "internalType": "bytes32",
          "name": "s",
          "type": "bytes32"
        }
      ],
      "name": "permit",
      "outputs": [],
      "stateMutability": "nonpayable",
      "type": "function"
    },
    {
      "inputs": [],
      "name": "symbol",
      "outputs": [
        {
          "internalType": "string",
          "name": "",
          "type": "string"
        }
      ],
      "stateMutability": "view",
      "type": "function"
    },
    {
      "inputs": [],
      "name": "totalSupply",
      "outputs": [
        {
          "internalType": "uint256",
          "name": "",
          "type": "uint256"
        }
      ],
      "stateMutability": "view",
      "type": "function"
    },
    {
      "inputs": [
        {
          "internalType": "address",
          "name": "to",
          "type": "address"
        },
        {
          "internalType": "uint256",
          "name": "amount",
          "type": "uint256"
        }
      ],
      "name": "transfer",
      "outputs": [
        {
          "internalType": "bool",
          "name": "",
          "type": "bool"
        }
      ],
      "stateMutability": "nonpayable",
      "type": "function"
    },
    {
      "inputs": [
        {
          "internalType": "address",
          "name": "_to",
          "type": "address"
        },
        {
          "internalType": "uint256",
          "name": "_value",
          "type": "uint256"
        },
        {
          "internalType": "bytes",
          "name": "_data",
          "type": "bytes"
        }
      ],
      "name": "transferAndCall",
      "outputs": [
        {
          "internalType": "bool",
          "name": "success",
          "type": "bool"
        }
      ],
      "stateMutability": "nonpayable",
      "type": "function"
    },
    {
      "inputs": [
        {
          "internalType": "address",
          "name": "from",
          "type": "address"
        },
        {
          "internalType": "address",
          "name": "to",
          "type": "address"
        },
        {
          "internalType": "uint256",
          "name": "amount",
          "type": "uint256"
        }
      ],
      "name": "transferFrom",
      "outputs": [
        {
          "internalType": "bool",
          "name": "",
          "type": "bool"
        }
      ],
      "stateMutability": "nonpayable",
      "type": "function"
    }
  ],
  "bytecode": {
    "object": "0x60e06040523480156200001157600080fd5b50604051806040016040528060098152602001682634b735aa37b5b2b760b91b815250604051806040016040528060048152602001634c494e4b60e01b815250601282600090816200006491906200025b565b5060016200007383826200025b565b5060ff81166080524660a05262000089620000ad565b60c05250620000a7915033905069d3c21bcecceda100000062000149565b620003cd565b60007f8b73c3c69bb8fe3d512ecc4cf759cc79239f7b179b0ffacaa9a75d522b39400f6000604051620000e1919062000327565b6040805191829003822060208301939093528101919091527fc89efdaa54c0f20c7adf612882df0950f5a951637e0307cdcb4c672f298b8bc660608201524660808201523060a082015260c00160405160208183030381529060405280519060200120905090565b80600260008282546200015d9190620003a5565b90915550506001600160a01b0382166000818152600360209081526040808320805486019055518481527fddf252ad1be2c89b69c2b068fc378daa952ba7f163c4a11628f55a4df523b3ef910160405180910390a35050565b634e487b7160e01b600052604160045260246000fd5b600181811c90821680620001e157607f821691505b6020821081036200020257634e487b7160e01b600052602260045260246000fd5b50919050565b601f8211156200025657600081815260208120601f850160051c81016020861015620002315750805b601f850160051c820191505b8181101562000252578281556001016200023d565b5050505b505050565b81516001600160401b03811115620002775762000277620001b6565b6200028f81620002888454620001cc565b8462000208565b602080601f831160018114620002c75760008415620002ae5750858301515b600019600386901b1c1916600185901b17855562000252565b600085815260208120601f198616915b82811015620002f857888601518255948401946001909101908401620002d7565b5085821015620003175787850151600019600388901b60f8161c191681555b5050505050600190811b01905550565b60008083546200033781620001cc565b60018281168015620003525760018114620003685762000399565b60ff198416875282151583028701945062000399565b8760005260208060002060005b85811015620003905781548a82015290840190820162000375565b50505082870194505b50929695505050505050565b80820180821115620003c757634e487b7160e01b600052601160045260246000fd5b92915050565b60805160a05160c051610d12620003fd600039600061049601526000610461015260006101860152610d126000f3fe608060405234801561001057600080fd5b50600436106100ea5760003560e01c80634000aea01161008c57806395d89b411161006657806395d89b4114610215578063a9059cbb1461021d578063d505accf14610230578063dd62ed3e1461024557600080fd5b80634000aea0146101c257806370a08231146101d55780637ecebe00146101f557600080fd5b806323b872dd116100c857806323b872dd1461014757806330adf81f1461015a578063313ce567146101815780633644e515146101ba57600080fd5b806306fdde03146100ef578063095ea7b31461010d57806318160ddd14610130575b600080fd5b6100f7610270565b6040516101049190610953565b60405180910390f35b61012061011b366004610989565b6102fe565b6040519015158152602001610104565b61013960025481565b604051908152602001610104565b6101206101553660046109b3565b61036b565b6101397f6e71edae12b1b97f4d1f60370fef10105fa2faae0126114a169c64845d6126c981565b6101a87f000000000000000000000000000000000000000000000000000000000000000081565b60405160ff9091168152602001610104565b61013961045d565b6101206101d0366004610a05565b6104b8565b6101396101e3366004610ad0565b60036020526000908152604090205481565b610139610203366004610ad0565b60056020526000908152604090205481565b6100f761052e565b61012061022b366004610989565b61053b565b61024361023e366004610aeb565b6105b3565b005b610139610253366004610b5e565b600460209081526000928352604080842090915290825290205481565b6000805461027d90610b91565b80601f01602080910402602001604051908101604052809291908181526020018280546102a990610b91565b80156102f65780601f106102cb576101008083540402835291602001916102f6565b820191906000526020600020905b8154815290600101906020018083116102d957829003601f168201915b505050505081565b3360008181526004602090815260408083206001600160a01b038716808552925280832085905551919290917f8c5be1e5ebec7d5bd14f71427d1e84f3dd0314c0f7b2291e5b200ac8c7c3b925906103599086815260200190565b60405180910390a35060015b92915050565b6001600160a01b038316600090815260046020908152604080832033845290915281205460001981146103c7576103a28382610bcb565b6001600160a01b03861660009081526004602090815260408083203384529091529020555b6001600160a01b038516600090815260036020526040812080548592906103ef908490610bcb565b90915550506001600160a01b03808516600081815260036020526040908190208054870190555190918716907fddf252ad1be2c89b69c2b068fc378daa952ba7f163c4a11628f55a4df523b3ef9061044a9087815260200190565b60405180910390a3506001949350505050565b60007f000000000000000000000000000000000000000000000000000000000000000046146104935761048e610809565b905090565b507f000000000000000000000000000000000000000000000000000000000000000090565b60006104c4848461053b565b50836001600160a01b0316336001600160a01b03167fe19260aff97b920c7df27010903aeb9c8d2be5d310a2c67824cf3f15396e4c16858560405161050a929190610bec565b60405180910390a3833b15610524576105248484846108a3565b5060019392505050565b6001805461027d90610b91565b3360009081526003602052604081208054839190839061055c908490610bcb565b90915550506001600160a01b038316600081815260036020526040908190208054850190555133907fddf252ad1be2c89b69c2b068fc378daa952ba7f163c4a11628f55a4df523b3ef906103599086815260200190565b428410156106085760405162461bcd60e51b815260206004820152601760248201527f5045524d49545f444541444c494e455f4558504952454400000000000000000060448201526064015b60405180910390fd5b600061061261045d565b6001600160a01b0389811660008181526005602090815260409182902080546001810190915582517f6e71edae12b1b97f4d1f60370fef10105fa2faae0126114a169c64845d6126c98184015280840194909452938c166060840152608083018b905260a083019390935260c08083018a90528151808403909101815260e08301909152805192019190912061190160f01b6101008301526101028201929092526101228101919091526101420160408051601f198184030181528282528051602091820120600080855291840180845281905260ff88169284019290925260608301869052608083018590529092509060019060a0016020604051602081039080840390855afa15801561072b573d6000803e3d6000fd5b5050604051601f1901519150506001600160a01b038116158015906107615750886001600160a01b0316816001600160a01b0316145b61079e5760405162461bcd60e51b815260206004820152600e60248201526d24a72b20a624a22fa9a4a3a722a960911b60448201526064016105ff565b6001600160a01b0390811660009081526004602090815260408083208b8516808552908352928190208a905551898152919350918a16917f8c5be1e5ebec7d5bd14f71427d1e84f3dd0314c0f7b2291e5b200ac8c7c3b925910160405180910390a350505050505050565b60007f8b73c3c69bb8fe3d512ecc4cf759cc79239f7b179b0ffacaa9a75d522b39400f600060405161083b9190610c0d565b6040805191829003822060208301939093528101919091527fc89efdaa54c0f20c7adf612882df0950f5a951637e0307cdcb4c672f298b8bc660608201524660808201523060a082015260c00160405160208183030381529060405280519060200120905090565b604051635260769b60e11b815283906001600160a01b0382169063a4c0ed36906108d590339087908790600401610cac565b600060405180830381600087803b1580156108ef57600080fd5b505af1158015610903573d6000803e3d6000fd5b5050505050505050565b6000815180845260005b8181101561093357602081850181015186830182015201610917565b506000602082860101526020601f19601f83011685010191505092915050565b602081526000610966602083018461090d565b9392505050565b80356001600160a01b038116811461098457600080fd5b919050565b6000806040838503121561099c57600080fd5b6109a58361096d565b946020939093013593505050565b6000806000606084860312156109c857600080fd5b6109d18461096d565b92506109df6020850161096d565b9150604084013590509250925092565b634e487b7160e01b600052604160045260246000fd5b600080600060608486031215610a1a57600080fd5b610a238461096d565b925060208401359150604084013567ffffffffffffffff80821115610a4757600080fd5b818601915086601f830112610a5b57600080fd5b813581811115610a6d57610a6d6109ef565b604051601f8201601f19908116603f01168101908382118183101715610a9557610a956109ef565b81604052828152896020848701011115610aae57600080fd5b8260208601602083013760006020848301015280955050505050509250925092565b600060208284031215610ae257600080fd5b6109668261096d565b600080600080600080600060e0888a031215610b0657600080fd5b610b0f8861096d565b9650610b1d6020890161096d565b95506040880135945060608801359350608088013560ff81168114610b4157600080fd5b9699959850939692959460a0840135945060c09093013592915050565b60008060408385031215610b7157600080fd5b610b7a8361096d565b9150610b886020840161096d565b90509250929050565b600181811c90821680610ba557607f821691505b602082108103610bc557634e487b7160e01b600052602260045260246000fd5b50919050565b8181038181111561036557634e487b7160e01b600052601160045260246000fd5b828152604060208201526000610c05604083018461090d565b949350505050565b600080835481600182811c915080831680610c2957607f831692505b60208084108203610c4857634e487b7160e01b86526022600452602486fd5b818015610c5c5760018114610c7157610c9e565b60ff1986168952841515850289019650610c9e565b60008a81526020902060005b86811015610c965781548b820152908501908301610c7d565b505084890196505b509498975050505050505050565b60018060a01b0384168152826020820152606060408201526000610cd3606083018461090d565b9594505050505056fea2646970667358221220e8437deaad96b00c53da354067c3ee050927a5bf2b7f459d2938bcd06989a1c764736f6c63430008130033",
    "linkReferences": {}
  },
  "methodIdentifiers": {
    "DOMAIN_SEPARATOR()": "3644e515",
    "PERMIT_TYPEHASH()": "30adf81f",
    "allowance(address,address)": "dd62ed3e",
    "approve(address,uint256)": "095ea7b3",
    "balanceOf(address)": "70a08231",
    "decimals()": "313ce567",
    "name()": "06fdde03",
    "nonces(address)": "7ecebe00",
    "permit(address,address,uint256,uint256,uint8,bytes32,bytes32)": "d505accf",
    "symbol()": "95d89b41",
    "totalSupply()": "18160ddd",
    "transfer(address,uint256)": "a9059cbb",
    "transferAndCall(address,uint256,bytes)": "4000aea0",
    "transferFrom(address,address,uint256)": "23b872dd"
  },
  "id": 32
}